:100BB00041002B004100350048002C0000000000DF
:100BC00000000042002700004200290000410034DC
:0C0BD0000048003605010101060309027F
:100B6200C2B5C2B6E4FF120D237D037C00E4FFFE92
:100B720012076F7B017A007936120C3A20B1F47FAA
:100B82000A7E00120DD430B1FD7F0A7E00120DD410
:100B92007D2C7C017F017E00120A951204CC20B0CC
:0E0BA200DB7D037C007F017E0012076F80CE9A
:100DBB003F065B4F666D7D077F6F777C395E797180
:090DCB00766E383E7270007C7BEC
:100BDC0048003E160E14140014161648004616163D
:060BEC00100E13130016A9
:0808EB00900006EFF0A3EDF010
:1008F30078087C007D017BFF7A0D79BB7E007F1930
:10090300120298900006E014B40800505490091E97
:1009130075F003A4C58325F0C58373020936020964
:100923003A02093E02094202094602094E020956E9
:1009330002095ED2A4800ED2A48012D2A48016D261
:10094300A4801AC2A4D2A3D2A28016C2A4D2A3C2E4
:10095300A2800EC2A4C2A3D2A28006C2A4C2A3C212
:10096300A2900007E02408F582E43400F583E0F563
:0B097300807F017E00120DD4E4F580AF
:01097E002256
:10039800E4900001F07590F7E59064F760387F0A03
:1003A8007E00120DD4AF90EF2449601424E0601849
:1003B80024F0601C2470701E9000017401F08016F7
:1003C8009000017405F0800E9000017409F0800619
:1003D800900001740DF0E590B4F7FB7590FBE59083
:1003E80064FB60387F0A7E00120DD4AF90EF24457D
:1003F800601424E0601824F0601C2470701E9000C3
:10040800017402F080169000017406F0800E9000CE
:1004180001740AF08006900001740EF0E590B4FBB8
:10042800FB7590FDE59064FD60387F0A7E00120D33
:10043800D4AF90EF2443601424E0601824F0601CCB
:100448002470701E9000017403F0801690000174EF
:1004580007F0800E900001740BF080069000017484
:100468000FF0E590B4FDFB7590FEE59064FE6038F2
:100478007F0A7E00120DD4AF90EF2442601424E06E
:10048800601824F0601C2470701E9000017404F041
:1004980080169000017408F0800E900001740CF032
:1004A80080069000017410F0E590B4FEFB90000106
:1004B800E0FFC39401400CEFD3940A500690002B40
:0304C8007401F0CC
:0104CB00220E
:100D9B00181818FFFF1818181818181818181818FA
:100DAB000041221408142241181818DBDB181818FC
:050BF20042004E00006E
:100DD400EF4E6010EF1F70011E007D027CC7DCFE29
:040DE400DDFC80ECC6
:010DE80022E8
:0B0DE900EF1FAC0670011E4C70F622DC
:0B0C3A00900001EBF0A3EAF0A3E9F04A
:100C4500E4A3F004F0900004E0FF24FFFDE434FF8A
:100C5500FC900001E0FBA3E0FAA3E0F98D828C8310
:100C65001202BEFD1208EB900004E004F0E0D394FC
:030C75000840D262
:010C78002259
:0B0BF800900001EBF0A3EAF0A3E9F08D
:100C0300E4A3F004F0900004E0FFFDC374089DFD2D
:100C1300E49400FC900001E0FBA3E0FAA3E0F98D6B
:100C2300828C831202BEFD1208EB900004E004F0F4
:060C3300E0D3940840CF5D
:010C39002298
:0B0CB800900023EBF0A3EAF0A3E9F0AA
:100CC300E4A3F0F0900026E0FF900023E0FBA3E014
:100CD300FAA3E0F98F827583001202BEFD120D782C
:0C0CE300900026E004F0E0C3940840D824
:010CEF0022E2
:1005D20078017C007D017BFF7A0D799B7E007F088C
:1005E20012029878097C007D017BFF7A0D79A37E47
:1005F200007F0812029878117C007D017BFF7A0D42
:1006020079AB7E007F0812029878197C007D017B0D
:10061200FF7A0D79B37E007F08120298900021E4E0
:10062200F0A37414F0900035E014600D14602314EC
:10063200603914604F2404806490002174FFF5F047
:1006420012037445F0605B7B017A007901120CB8E9
:1006520080E790002174FFF5F012037445F06042C8
:100662007B017A007909120CB880E790002174FFAF
:10067200F5F012037445F060297B017A00791112BA
:100682000CB880E790002174FFF5F012037445F076
:1006920060107B017A007919120CB880E7E4FF122E
:0706A2000D23E4FF020D230C
:10076F00900000EEF0A3EFF0A3ECF0A3EDF0E49017
:10077F00004EF0A3F0900002E0FEA3E0FFC3900054
:10078F004FE09FEE6480F890004EE0648098400345
:03079F000208311C
:1007A200900004E4F0A37450F090000474FFF5F09C
:1007B20012037445F06060900000E0FEA3E0FFEEDB
:1007C20070E7EF1460250470E07D107F031208EBE0
:1007D2007D0E7F041208EB7D127F051208EB7D125D
:1007E2007F061208EBE4FD7F0780277D177F021248
:1007F20008EB7D117F031208EB7D0E7F041208EBDC
:100802007D177F061208EB7D117F071208EB7D0E24
:0E0812007F081208EB80927FF47E01120DD455
:1008200090004FE004F0700690004EE004F00207E4
:02083000842220
:0606A9007B017A00792CB0
:0B06AF00900001EBF0A3EAF0A3E9F0DB
:1006BA00E4A3F0A3F0A3F0A3F0A3F0A3F090000446
:0306CA00F0A3F0AA
:1006CD0090000AE4F0A304F0E4900006F0A3F0908B
:1006DD000004E0FEA3E0FFC3900007E09F9000063A
:1006ED00E09E502790000AE0FEA3E0FF7C007D0A0B
:1006FD0012030D90000AEEF0A3EFF0900007E00456
:10070D00F070CC900006E004F080C4900001E0FB96
:10071D00A3E0FAA3E0F9A3E0FEA3E0F5828E831235
:10072D0002BEFF7E0090000AE0FCA3E0FD12030D67
:0C073D00900009E02FF0900008E03EF072
:10074900900005E004F07006900004E004F09000C9
:1007590004E07004A3E0640860030206CD90000879
:05076900E0FEA3E0FF2B
:01076E002268
:10083200900001EEF0A3EFF0A3EBF0A3EAF0A3E93E
:01084200F0C5
:0F084300E4A3F0A3F0A3F0A3F0900006F0A3F05D
:1008520090000AE4F0A304F0E4900008F0A3F09002
:100862000006E0FEA3E0FFC3900009E09F900008AD
:10087200E09E502790000AE0FEA3E0FF7C007D0A84
:1008820012030D90000AEEF0A3EFF0900009E004CD
:10089200F070CC900008E004F080C490000AE0FC04
:1008A200A3E0FD900001E0FEA3E0FF12031F7C0025
:1008B2007D0A12031FA3E0FBA3E0FAA3E0F9A3E081
:0B08C200FCA3E0F5828C83ED1202EB3A
:1008CD00900007E004F07006900006E004F0900040
:0D08DD0006E07004A3E06408600302085206
:0108EA0022EB
:060CF0007B017A00792C63
:0B0CF600900001EBF0A3EAF0A3E9F08E
:100D0100E4FFFE900001E0FBA3E0FAA3E0F98F828B
:100D11008E83E41202EB0FBF00010EEF64084E70E8
:010D2100E2EF
:010D220022AE
:100D5100900035E0B4041F900029E07002A3E07018
:100D6100157B017A00793E120C3A120398900034F7
:070D7100EFF0BF10DB2222AE
:100C7900900029E0FEA3E0FFC3900028E09F9000C8
:100C890027E09E50297B017A00793E120C3A120323
:100C990098900034EFF0BF10D7E4900027F0A3F04C
:0F0CA900900029F0A3F090002BF0900035F0227E
:100A0B00EF14601A14602D14604414605A2404709F
:100A1B0071900029E0FFA3E0900027CF8060900049
:100A2B0029E0FEA3E0FF900028E02FF0900027E0E4
:100A3B003EF0804E120C79900029E0FEA3E0FFC33C
:100A4B00900028E09FF0900027E09EF0803490000B
:100A5B0027E0FEA3E0FF900029E0FCA3E0FD1203DA
:100A6B000D900027EE8017900027E0FEA3E0FF908B
:100A7B000029E0FCA3E0FD12031F900027EEF0A37A
:0A0A8B00EFF0E4900029F0A3F02240
:1004CC00E4900000F020B0030205D17B017A0079A2
:1004DC002C120BF8120398900034EFF060E7E0FF59
:1004EC007E00120B0690002BE0640170519000000E
:1004FC007407F0900000E0FF242BF582E43400F543
:10050C0083E0FE742C2FF582E43400F583EEF0903A
:10051C000000E014F0E070DB900034E0B40A02E478
:10052C00F0900034E090002CF01206A9900029EE17
:10053C00F0A3EFF0120D51E490002BF080879000A7
:10054C0034E0B4101F120CF07B017A00792C120BE2
:10055C00F8E4900027F0A3F0900029F0A3F09000AD
:10056C002BF08036900034E0640F9000357031E051
:10057C00FF120A0B900027E0FEA3E0FF7B017A003C
:10058C00792C1208321206A9900029EEF0A3EFF094
:10059C007B017A00792C120BF8E4900035F0801F67
:1005AC00E0FF120A0B120CF07B017A00792C120B73
:1005BC00F8900034E075F00A84900035E5F0F01204
:0505CC0005D20204D17C
:0105D1002207
:020D2300AD071A
:100D2500E4FB74807E00A803088006CEA2E713CEFC
:100D350013D8F8FFEDF582EF558224FF92B4D2B6B1
:0B0D4500C2B60BEBB408DBD2B5C2B5A0
:010D50002280
:100D7800AC07AF05120D23AF047480A807088002E2
:100D8800C313D8FCF4F5807F017E00120DD4E4FF74
:030D9800020D2326
:100A9500900000EEF0A3EFF0A3ECF0A3EDF09000D2
:080AA50000E07002A3E06058BC
:100AAD00E4900004F0A3F0900004F0A3F090000493
:100ABD00E0FEA3E0FFC39408EE6480948050297497
:100ACD0001A807088002C333D8FCF4F5A0900002FA
:100ADD00E0FEA3E0FF120DD4900005E004F070CD10
:100AED00900004E004F080C5900001E024FFF09038
:060AFD000000E034FFF0F0
:030B0300809E22AF
:080B0600900001EEF0A3EFF0F6
:100B0E00A3E4F0A37414F090000374FFF5F0120345
:100B1E007445F0603CD2A5900001E0FCA3E0FDE43A
:100B2E0012010EE4FBFAF9783F120003120147128C
:100B3E000DE9C2A5900001E0FCA3E0FDE412010E58
:100B4E00E4FBFAF9783F120003120147120DE98017
:030B5E00B6C2A577
:010B61002271
:10000300EC4D6011E8497017ED33EC3304600DE4F7
:10001300FCFFFEFD22E933E8330470F80201B3125A
:10002300017E58046009E4CC24815006285009025B
:1000330001BD2840030201BAC0E0EB4A7044B98015
:1000430006D0E0FB0201A9EF4E701CBD8008EBFF58
:10005300EAFEE9FD80EBE98DF0A4FEE5F00200EC99
:10006300E9CDF9EAFEEBFFEF89F0A4FCE5F0CE89D8
:10007300F0A42EFFE435F0CD89F0A42DFEE435F095
:100083008067EF4E7005BD80D780C3EF8BF0A4ACC3
:10009300F0EE8BF0A42CFCE435F0F8EF8AF0A42CFE
:1000A300E5F038FCE433CB8DF0A42CFCE5F03BF811
:1000B300EE8AF0A42CFCE5F038F8E433CF89F0A401
:1000C3002CFCE5F038CF3400CE89F0A42FFFE5F007
:1000D3003EFEE433C98DF0A42EFEE5F039CD8AF05F
:1000E300A42FFFE5F03EFEE43DFD33D0E0FB5007D7
:1000F3000BBB000F0201BDEC2CFCEF33FFEE33FE14
:06010300ED33FD02019541
:1001090075F020800E75F010800575F0087D007E71
:10011900007F003392D530D50312038AEC334010A7
:10012900EF33FFEE33FEED33FDEC33FCD5F0ED227A
:0E013900E5F0247EA2D513CC92E7CDCEFF22B6
:10014700EDD2E7CD33EC3392D524814006E4FFFEB0
:10015700FDFC22FCE4CFCECDCC24E0501174FF800F
:10016700EDC3CC13CCCD13CDCE13CECF13CF0470AC
:07017700F030D5DE02038A1F
:10017E00E9D2E7C933E833F892D5EDD2E7CD33ECC7
:07018E0033FC5002B2D52240
:10019500EC30E7100FBF000C0EBE00080DBD0004CB
:1001A5000BEB6014A2D5EB13FCED92E7FD2274FF77
:1001B500FCFDFEFF22E480F8A2D574FF13FC7D80D0
:0301C500E480EFE4
:0300000002097F73
:0C097F00787FE4F6D8FD7581070209C6F8
:1001C800E709F608DFFA8046E709F208DFFA803E19
:1001D80088828C83E709F0A3DFFA8032E309F60806
:1001E800DFFA8078E309F208DFFA807088828C836E
:1001F800E309F0A3DFFA806489828A83E0A3F60822
:10020800DFFA805889828A83E0A3F208DFFA804CFB
:1002180080D280FA80C680D4806980F280338010D2
:1002280080A680EA809A80A880DA80E280CA80333B
:1002380089828A83ECFAE493A3C8C582C8CCC583B3
:10024800CCF0A3C8C582C8CCC583CCDFE9DEE78083
:100258000D89828A83E493A3F608DFF9ECFAA9F002
:10026800EDFB2289828A83ECFAE0A3C8C582C8CC58
:10027800C583CCF0A3C8C582C8CCC583CCDFEADE71
:10028800E880DB89828A83E493A3F208DFF980CCD3
:1002980088F0EF60010E4E60C388F0ED2402B404CC
:1002A8000050B9F582EB2402B4040050AF23234573
:0602B8008223900218737E
:1002BE00BB010CE58229F582E5833AF583E02250F5
:1002CE0006E92582F8E622BBFE06E92582F8E2223F
:0D02DE00E58229F582E5833AF583E4932259
:1002EB00F8BB010DE58229F582E5833AF583E8F049
:1002FB00225006E92582C8F622BBFE05E92582C8F5
:02030B00F222DC
:10030D00EF8DF0A4A8F0CF8CF0A428CE8DF0A42E04
:02031D00FE22BE
:10031F00BC000BBE0029EF8DF084FFADF022E4CCC2
:10032F00F875F008EF2FFFEE33FEEC33FCEE9DEC8B
:10033F00984005FCEE9DFE0FD5F0E9E4CEFD22EDD1
:10034F00F8F5F0EE8420D21CFEADF075F008EF2F1B
:10035F00FFED33FD4007985006D5F0F222C398FD0C
:05036F000FD5F0EA22A9
:10037400A3F8E0C5F025F0F0E5821582700215833C
:06038400E0C838F0E82299
:0E038A00C3E49FFFE49EFEE49DFDE49CFC2284
:10098B00020B62E493A3F8E493A34003F68001F215
:10099B0008DFF48029E493A3F85407240CC8C3336D
:1009AB00C4540F4420C8834004F456800146F6DF3C
:1009BB00E4800B0102040810204080900BB0E47E11
:1009CB00019360BCA3FF543F30E509541FFEE49331
:1009DB00A360010ECF54C025E060A840B8E493A3F8
:1009EB00FAE493A3F8E493A3C8C582C8CAC583CA23
:1009FB00F0A3C8C582C8CAC583CADFE9DEE780BEDB
:010BF70000FD
:00000001FF
